{
  "transactions": [
    {
      "hash": "0x2a224fd76579533a675aa89608b0f9314111f61dd9e9c281dfe3a966380a3da5",
      "transactionType": "CREATE",
      "contractName": "NeynarUserScoresV1",
      "contractAddress": "0x1e790208521d35a96752eae049067b839011ba09",
      "function": null,
      "arguments": null,
      "transaction": {
        "from": "0x23e0b1af3bd2f16c540c40e946d2c17a7dc05d8a",
        "gas": "0xab367",
        "value": "0x0",
        "input": "0x6080604052348015600e575f5ffd5b506108cc8061001c5f395ff3fe608060405234801561000f575f5ffd5b5060043610610086575f3560e01c80638ce79f66116100595780638ce79f6614610122578063c35070e51461013e578063c836b8c51461016e578063cd4e2aff1461018a57610086565b80630e1af57b1461008a57806314d9b811146100ba57806323d36428146100d65780636771f52414610106575b5f5ffd5b6100a4600480360381019061009f91906104a7565b6101a6565b6040516100b191906104ef565b60405180910390f35b6100d460048036038101906100cf9190610569565b6101cd565b005b6100f060048036038101906100eb9190610569565b61022e565b6040516100fd919061066b565b60405180910390f35b610120600480360381019061011b91906106e0565b610307565b005b61013c60048036038101906101379190610788565b610321565b005b610158600480360381019061015391906104a7565b610351565b60405161016591906104ef565b60405180910390f35b610188600480360381019061018391906107c6565b6103b0565b005b6101a4600480360381019061019f91906104a7565b610448565b005b5f5f5f8381526020019081526020015f205f9054906101000a900462ffffff169050919050565b5f8282905090505f5f90505b81811015610228575f5f8585848181106101f6576101f5610811565b5b9050602002013581526020019081526020015f205f6101000a81549062ffffff021916905580806001019150506101d9565b50505050565b60605f8383905090508067ffffffffffffffff8111156102515761025061083e565b5b60405190808252806020026020018201604052801561027f5781602001602082028036833780820191505090505b5091505f5f90505b818110156102ff575f5f8686848181106102a4576102a3610811565b5b9050602002013581526020019081526020015f205f9054906101000a900462ffffff168382815181106102da576102d9610811565b5b602002602001019062ffffff16908162ffffff16815250508080600101915050610287565b505092915050565b61031184846103b0565b61031b82826101cd565b50505050565b805f5f8481526020019081526020015f205f6101000a81548162ffffff021916908362ffffff1602179055505050565b5f5f5f8381526020019081526020015f205f9054906101000a900462ffffff169050817f54b88502b6373945a4c9cbc1bf0022010be83965c8df06e10bfb0987c1f88b50826040516103a391906104ef565b60405180910390a2919050565b5f8282905090505f5f90505b81811015610442578383828181106103d7576103d6610811565b5b90506040020160200160208101906103ef919061086b565b5f5f86868581811061040457610403610811565b5b9050604002015f013581526020019081526020015f205f6101000a81548162ffffff021916908362ffffff16021790555080806001019150506103bc565b50505050565b5f5f8281526020019081526020015f205f6101000a81549062ffffff021916905550565b5f5ffd5b5f5ffd5b5f819050919050565b61048681610474565b8114610490575f5ffd5b50565b5f813590506104a18161047d565b92915050565b5f602082840312156104bc576104bb61046c565b5b5f6104c984828501610493565b91505092915050565b5f62ffffff82169050919050565b6104e9816104d2565b82525050565b5f6020820190506105025f8301846104e0565b92915050565b5f5ffd5b5f5ffd5b5f5ffd5b5f5f83601f84011261052957610528610508565b5b8235905067ffffffffffffffff8111156105465761054561050c565b5b60208301915083602082028301111561056257610561610510565b5b9250929050565b5f5f6020838503121561057f5761057e61046c565b5b5f83013567ffffffffffffffff81111561059c5761059b610470565b5b6105a885828601610514565b92509250509250929050565b5f81519050919050565b5f82825260208201905092915050565b5f819050602082019050919050565b6105e6816104d2565b82525050565b5f6105f783836105dd565b60208301905092915050565b5f602082019050919050565b5f610619826105b4565b61062381856105be565b935061062e836105ce565b805f5b8381101561065e57815161064588826105ec565b975061065083610603565b925050600181019050610631565b5085935050505092915050565b5f6020820190508181035f830152610683818461060f565b905092915050565b5f5f83601f8401126106a05761069f610508565b5b8235905067ffffffffffffffff8111156106bd576106bc61050c565b5b6020830191508360408202830111156106d9576106d8610510565b5b9250929050565b5f5f5f5f604085870312156106f8576106f761046c565b5b5f85013567ffffffffffffffff81111561071557610714610470565b5b6107218782880161068b565b9450945050602085013567ffffffffffffffff81111561074457610743610470565b5b61075087828801610514565b925092505092959194509250565b610767816104d2565b8114610771575f5ffd5b50565b5f813590506107828161075e565b92915050565b5f5f6040838503121561079e5761079d61046c565b5b5f6107ab85828601610493565b92505060206107bc85828601610774565b9150509250929050565b5f5f602083850312156107dc576107db61046c565b5b5f83013567ffffffffffffffff8111156107f9576107f8610470565b5b6108058582860161068b565b92509250509250929050565b7f4e487b71000000000000000000000000000000000000000000000000000000005f52603260045260245ffd5b7f4e487b71000000000000000000000000000000000000000000000000000000005f52604160045260245ffd5b5f602082840312156108805761087f61046c565b5b5f61088d84828501610774565b9150509291505056fea2646970667358221220b1337469522cc690e4ffccab1eda5a49bcf05a00c8bcbd2b7c5c36367fb4cb8264736f6c634300081c0033",
        "nonce": "0x2",
        "chainId": "0x2105"
      },
      "additionalContracts": [],
      "isFixedGasLimit": false
    },
    {
      "hash": "0x9b296adda932122129437fd04c17f524931eae92add3c0a4b8f8484471a85dea",
      "transactionType": "CALL",
      "contractName": "NeynarUserScoresV1",
      "contractAddress": "0x1e790208521d35a96752eae049067b839011ba09",
      "function": "setScores((uint256,uint24)[])",
      "arguments": [
        "[(0, 1), (1, 1)]"
      ],
      "transaction": {
        "from": "0x23e0b1af3bd2f16c540c40e946d2c17a7dc05d8a",
        "to": "0x1e790208521d35a96752eae049067b839011ba09",
        "gas": "0x16da9",
        "value": "0x0",
        "input": "0xc836b8c5000000000000000000000000000000000000000000000000000000000000002000000000000000000000000000000000000000000000000000000000000000020000000000000000000000000000000000000000000000000000000000000000000000000000000000000000000000000000000000000000000000000000000100000000000000000000000000000000000000000000000000000000000000010000000000000000000000000000000000000000000000000000000000000001",
        "nonce": "0x3",
        "chainId": "0x2105"
      },
      "additionalContracts": [],
      "isFixedGasLimit": false
    }
  ],
  "receipts": [
    {
      "status": "0x1",
      "cumulativeGasUsed": "0x1a809ad",
      "logs": [],
      "logsBloom": "0x00000000000000000000000000000000000000000000000000000000000000000000000000000000000000000000000000000000000000000000000000000000000000000000000000000000000000000000000000000000000000000000000000000000000000000000000000000000000000000000000000000000000000000000000000000000000000000000000000000000000000000000000000000000000000000000000000000000000000000000000000000000000000000000000000000000000000000000000000000000000000000000000000000000000000000000000000000000000000000000000000000000000000000000000000000000",
      "type": "0x2",
      "transactionHash": "0x2a224fd76579533a675aa89608b0f9314111f61dd9e9c281dfe3a966380a3da5",
      "transactionIndex": "0x59",
      "blockHash": "0x4683fe6cc2cda66e8957294d4843f485c30ed3736b9876b727b035ea00b11779",
      "blockNumber": "0x1c817a0",
      "gasUsed": "0x83b3c",
      "effectiveGasPrice": "0x128bb2",
      "from": "0x23e0b1af3bd2f16c540c40e946d2c17a7dc05d8a",
      "to": null,
      "contractAddress": "0x1e790208521d35a96752eae049067b839011ba09",
      "l1BaseFeeScalar": "0x8dd",
      "l1BlobBaseFee": "0x15b",
      "l1BlobBaseFeeScalar": "0x101c12",
      "l1Fee": "0x590028e8e",
      "l1GasPrice": "0x1dc0463d",
      "l1GasUsed": "0x5266"
    },
    {
      "status": "0x1",
      "cumulativeGasUsed": "0x1a91269",
      "logs": [],
      "logsBloom": "0x00000000000000000000000000000000000000000000000000000000000000000000000000000000000000000000000000000000000000000000000000000000000000000000000000000000000000000000000000000000000000000000000000000000000000000000000000000000000000000000000000000000000000000000000000000000000000000000000000000000000000000000000000000000000000000000000000000000000000000000000000000000000000000000000000000000000000000000000000000000000000000000000000000000000000000000000000000000000000000000000000000000000000000000000000000000",
      "type": "0x2",
      "transactionHash": "0x9b296adda932122129437fd04c17f524931eae92add3c0a4b8f8484471a85dea",
      "transactionIndex": "0x5a",
      "blockHash": "0x4683fe6cc2cda66e8957294d4843f485c30ed3736b9876b727b035ea00b11779",
      "blockNumber": "0x1c817a0",
      "gasUsed": "0x108bc",
      "effectiveGasPrice": "0x128bb2",
      "from": "0x23e0b1af3bd2f16c540c40e946d2c17a7dc05d8a",
      "to": "0x1e790208521d35a96752eae049067b839011ba09",
      "contractAddress": null,
      "l1BaseFeeScalar": "0x8dd",
      "l1BlobBaseFee": "0x15b",
      "l1BlobBaseFeeScalar": "0x101c12",
      "l1Fee": "0x6c02ae74",
      "l1GasPrice": "0x1dc0463d",
      "l1GasUsed": "0x640"
    }
  ],
  "libraries": [],
  "pending": [],
  "returns": {},
  "timestamp": 1746570277,
  "chain": 8453,
  "commit": "03246f7"
}